{
  "contractName": "Splitter",
  "abi": [
    {
      "constant": true,
      "inputs": [],
      "name": "owner",
      "outputs": [
        {
          "name": "",
          "type": "address"
        }
      ],
      "payable": false,
      "stateMutability": "view",
      "type": "function"
    },
    {
      "inputs": [],
      "payable": false,
      "stateMutability": "nonpayable",
      "type": "constructor"
    },
    {
      "payable": true,
      "stateMutability": "payable",
      "type": "fallback"
    },
    {
      "constant": false,
      "inputs": [
        {
          "name": "Bob",
          "type": "address"
        },
        {
          "name": "Carol",
          "type": "address"
        },
        {
          "name": "amountToSplit",
          "type": "uint256"
        }
      ],
      "name": "splitAmount",
      "outputs": [],
      "payable": true,
      "stateMutability": "payable",
      "type": "function"
    }
  ],
  "bytecode": "0x608060405234801561001057600080fd5b50336000806101000a81548173ffffffffffffffffffffffffffffffffffffffff021916908373ffffffffffffffffffffffffffffffffffffffff16021790555061040f806100606000396000f30060806040526004361061004c576000357c0100000000000000000000000000000000000000000000000000000000900463ffffffff168063892fe89e1461004e5780638da5cb5b146100ae575b005b6100ac600480360381019080803573ffffffffffffffffffffffffffffffffffffffff169060200190929190803573ffffffffffffffffffffffffffffffffffffffff16906020019092919080359060200190929190505050610105565b005b3480156100ba57600080fd5b506100c36103be565b604051808273ffffffffffffffffffffffffffffffffffffffff1673ffffffffffffffffffffffffffffffffffffffff16815260200191505060405180910390f35b806000341415156101ca576040517f08c379a000000000000000000000000000000000000000000000000000000000815260040180806020018281038252604c8152602001807f4572726f723a2066756e6374696f6e20646f6573206e6f7420737570706f727481526020017f206d73672e76616c75652c20796f75206e65656420746f20706173732069742081526020017f617320706172616d65746572000000000000000000000000000000000000000081525060600191505060405180910390fd5b600081111515610268576040517f08c379a00000000000000000000000000000000000000000000000000000000081526004018080602001828103825260228152602001807f4572726f723a20796f75206e65656420746f2070726f7669646520612076616c81526020017f756500000000000000000000000000000000000000000000000000000000000081525060400191505060405180910390fd5b600060028281151561027657fe5b06141515610312576040517f08c379a00000000000000000000000000000000000000000000000000000000081526004018080602001828103825260238152602001807f4572726f723a206f6e6c79206576656e206e756d62657273206163636570746181526020017f626c65000000000000000000000000000000000000000000000000000000000081525060400191505060405180910390fd5b8373ffffffffffffffffffffffffffffffffffffffff166108fc60028481151561033857fe5b049081150290604051600060405180830381858888f19350505050158015610364573d6000803e3d6000fd5b508273ffffffffffffffffffffffffffffffffffffffff166108fc60028481151561038b57fe5b049081150290604051600060405180830381858888f193505050501580156103b7573d6000803e3d6000fd5b5050505050565b6000809054906101000a900473ffffffffffffffffffffffffffffffffffffffff16815600a165627a7a7230582062b74590251cafbe5c2e14fd4b89bda7f466643565868e4ec022f2632fcd5fb50029",
  "source": "pragma solidity 0.4.24;\r\n\r\ncontract Splitter {\r\n    address public owner;\r\n\r\n    constructor() public {\r\n        owner = msg.sender;\r\n    }\r\n\r\n    modifier conditionsForSplit(uint amountToSplit) {\r\n        require(msg.value == 0, \"Error: function does not support msg.value, you need to pass it as parameter\");\r\n        require(amountToSplit > 0, \"Error: you need to provide a value\");        \r\n        require(amountToSplit % 2 == 0, \"Error: only even numbers acceptable\");\r\n        _;\r\n    }\r\n        \r\n    function splitAmount(address Bob, address Carol, uint amountToSplit) public payable conditionsForSplit(amountToSplit) {\r\n        Bob.transfer(amountToSplit/2);\r\n        Carol.transfer(amountToSplit/2);\r\n    }\r\n    \r\n    function() external payable {\r\n    }\r\n}\r\n",
  "sourcePath": "/mnt/c/Splitter/contracts/Splitter.sol",
  "compiler": {
    "name": "solc",
    "version": "0.4.24+commit.e67f0147.Emscripten.clang"
  },
  "schemaVersion": "2.0.1",
  "updatedAt": "2018-12-25T19:25:51.793Z"
}