{
  "contractName": "Splitter",
  "abi": [
    {
      "constant": true,
      "inputs": [],
      "name": "owner",
      "outputs": [
        {
          "name": "",
          "type": "address"
        }
      ],
      "payable": false,
      "stateMutability": "view",
      "type": "function"
    },
    {
      "inputs": [],
      "payable": false,
      "stateMutability": "nonpayable",
      "type": "constructor"
    },
    {
      "payable": true,
      "stateMutability": "payable",
      "type": "fallback"
    },
    {
      "anonymous": false,
      "inputs": [
        {
          "indexed": false,
          "name": "accountName",
          "type": "string"
        },
        {
          "indexed": false,
          "name": "accountAddress",
          "type": "address"
        }
      ],
      "name": "accountAdded",
      "type": "event"
    },
    {
      "anonymous": false,
      "inputs": [
        {
          "indexed": false,
          "name": "amount",
          "type": "uint256"
        },
        {
          "indexed": false,
          "name": "accountName",
          "type": "string"
        },
        {
          "indexed": false,
          "name": "accountAddress",
          "type": "address"
        }
      ],
      "name": "amountSent",
      "type": "event"
    },
    {
      "constant": false,
      "inputs": [
        {
          "name": "receiver1",
          "type": "address"
        },
        {
          "name": "receiver2",
          "type": "address"
        },
        {
          "name": "amountToSplit",
          "type": "uint256"
        }
      ],
      "name": "splitAmount",
      "outputs": [
        {
          "name": "",
          "type": "bool"
        }
      ],
      "payable": false,
      "stateMutability": "nonpayable",
      "type": "function"
    },
    {
      "constant": false,
      "inputs": [],
      "name": "pullEther",
      "outputs": [
        {
          "name": "",
          "type": "bool"
        }
      ],
      "payable": true,
      "stateMutability": "payable",
      "type": "function"
    }
  ],
  "bytecode": "0x608060405234801561001057600080fd5b50336000806101000a81548173ffffffffffffffffffffffffffffffffffffffff021916908373ffffffffffffffffffffffffffffffffffffffff16021790555061056a806100606000396000f300608060405260043610610057576000357c0100000000000000000000000000000000000000000000000000000000900463ffffffff168063892fe89e146100595780638da5cb5b146100de578063d8a7753b14610135575b005b34801561006557600080fd5b506100c4600480360381019080803573ffffffffffffffffffffffffffffffffffffffff169060200190929190803573ffffffffffffffffffffffffffffffffffffffff16906020019092919080359060200190929190505050610157565b604051808215151515815260200191505060405180910390f35b3480156100ea57600080fd5b506100f3610445565b604051808273ffffffffffffffffffffffffffffffffffffffff1673ffffffffffffffffffffffffffffffffffffffff16815260200191505060405180910390f35b61013d61046a565b604051808215151515815260200191505060405180910390f35b600080826000811115156101f9576040517f08c379a00000000000000000000000000000000000000000000000000000000081526004018080602001828103825260228152602001807f4572726f723a20796f75206e65656420746f2070726f7669646520612076616c81526020017f756500000000000000000000000000000000000000000000000000000000000081525060400191505060405180910390fd5b600073ffffffffffffffffffffffffffffffffffffffff168673ffffffffffffffffffffffffffffffffffffffff16141515156102c4576040517f08c379a00000000000000000000000000000000000000000000000000000000081526004018080602001828103825260298152602001807f4572726f723a20666972737420706172616d6574657220697320696e76616c6981526020017f642061646472657373000000000000000000000000000000000000000000000081525060400191505060405180910390fd5b600073ffffffffffffffffffffffffffffffffffffffff168573ffffffffffffffffffffffffffffffffffffffff161415151561038f576040517f08c379a000000000000000000000000000000000000000000000000000000000815260040180806020018281038252602a8152602001807f4572726f723a207365636f6e6420706172616d6574657220697320696e76616c81526020017f696420616464726573730000000000000000000000000000000000000000000081525060400191505060405180910390fd5b60028481151561039b57fe5b04915081600160008873ffffffffffffffffffffffffffffffffffffffff1673ffffffffffffffffffffffffffffffffffffffff1681526020019081526020016000206000828254019250508190555081600160008773ffffffffffffffffffffffffffffffffffffffff1673ffffffffffffffffffffffffffffffffffffffff168152602001908152602001600020600082825401925050819055506001925050509392505050565b6000809054906101000a900473ffffffffffffffffffffffffffffffffffffffff1681565b60003373ffffffffffffffffffffffffffffffffffffffff166108fc600160003373ffffffffffffffffffffffffffffffffffffffff1673ffffffffffffffffffffffffffffffffffffffff168152602001908152602001600020549081150290604051600060405180830381858888f193505050501580156104f1573d6000803e3d6000fd5b506000600160003373ffffffffffffffffffffffffffffffffffffffff1673ffffffffffffffffffffffffffffffffffffffff1681526020019081526020016000208190555060019050905600a165627a7a72305820fc2ceb8b10299e733d067687a20b371ce6797dd5a8f06c5aa2ccc964b49f00450029",
  "source": "pragma solidity 0.4.24;\r\n\r\ncontract Splitter {\r\n\r\n    address public owner;\r\n    mapping (address => uint) accounts;\r\n\r\n    constructor() public {\r\n        owner = msg.sender;\r\n    }\r\n\r\n    modifier onlyOwner {\r\n        require(msg.sender == owner, \"Only contract owner can set accounts\");\r\n        _;\r\n    }\r\n\r\n    event accountAdded(string accountName, address accountAddress);\r\n    event amountSent(uint amount, string accountName, address accountAddress);\r\n\r\n    modifier conditionsForSplit(uint amountToSplit) {\r\n        require(amountToSplit > 0, \"Error: you need to provide a value\");\r\n        //require(amountToSplit % 2 == 0, \"Error: only even numbers acceptable\");\r\n        _;\r\n    }\r\n        \r\n    function splitAmount(address receiver1, address receiver2, uint amountToSplit) public conditionsForSplit(amountToSplit) returns(bool) {\r\n        require(receiver1 != address(0), \"Error: first parameter is invalid address\");\r\n        require(receiver2 != address(0), \"Error: second parameter is invalid address\");\r\n        uint amountToSend = amountToSplit/2;\r\n        accounts[receiver1] += amountToSend;\r\n        accounts[receiver2] += amountToSend;\r\n        return true;\r\n    }\r\n\r\n    function pullEther() public payable returns(bool) {\r\n        msg.sender.transfer(accounts[msg.sender]);\r\n        accounts[msg.sender] = 0;\r\n        return true;\r\n    }\r\n    \r\n    function() public payable {\r\n    }\r\n}\r\n",
  "sourcePath": "/mnt/c/splitter-project/Splitter/contracts/Splitter.sol",
  "compiler": {
    "name": "solc",
    "version": "0.4.24+commit.e67f0147.Emscripten.clang"
  },
  "schemaVersion": "2.0.1",
  "updatedAt": "2018-12-26T18:39:42.235Z"
}