{
  "contractName": "Splitter",
  "abi": [
    {
      "constant": true,
      "inputs": [],
      "name": "owner",
      "outputs": [
        {
          "name": "",
          "type": "address"
        }
      ],
      "payable": false,
      "stateMutability": "view",
      "type": "function"
    },
    {
      "inputs": [
        {
          "name": "Alice",
          "type": "address"
        },
        {
          "name": "Bob",
          "type": "address"
        },
        {
          "name": "Carol",
          "type": "address"
        }
      ],
      "payable": false,
      "stateMutability": "nonpayable",
      "type": "constructor"
    },
    {
      "payable": true,
      "stateMutability": "payable",
      "type": "fallback"
    },
    {
      "anonymous": false,
      "inputs": [
        {
          "indexed": false,
          "name": "accountName",
          "type": "string"
        },
        {
          "indexed": false,
          "name": "accountAddress",
          "type": "address"
        }
      ],
      "name": "accountAdded",
      "type": "event"
    },
    {
      "anonymous": false,
      "inputs": [
        {
          "indexed": false,
          "name": "amount",
          "type": "uint256"
        },
        {
          "indexed": false,
          "name": "accountName",
          "type": "string"
        },
        {
          "indexed": false,
          "name": "accountAddress",
          "type": "address"
        }
      ],
      "name": "amountSent",
      "type": "event"
    },
    {
      "constant": false,
      "inputs": [
        {
          "name": "amountToSplit",
          "type": "uint256"
        }
      ],
      "name": "splitAmount",
      "outputs": [],
      "payable": true,
      "stateMutability": "payable",
      "type": "function"
    }
  ],
  "bytecode": "0x608060405234801561001057600080fd5b50604051606080610b5a833981018060405281019080805190602001909291908051906020019092919080519060200190929190505050336000806101000a81548173ffffffffffffffffffffffffffffffffffffffff021916908373ffffffffffffffffffffffffffffffffffffffff16021790555082600160007f416c69636500000000000000000000000000000000000000000000000000000060001916815260200190815260200160002060006101000a81548173ffffffffffffffffffffffffffffffffffffffff021916908373ffffffffffffffffffffffffffffffffffffffff1602179055507f4062c1458b7ccfda2802d3eb8b1d186a7518faa48cf0de502c9ee7dc5c4dff858360405180806020018373ffffffffffffffffffffffffffffffffffffffff1673ffffffffffffffffffffffffffffffffffffffff168152602001828103825260058152602001807f416c6963650000000000000000000000000000000000000000000000000000008152506020019250505060405180910390a181600160007f426f62000000000000000000000000000000000000000000000000000000000060001916815260200190815260200160002060006101000a81548173ffffffffffffffffffffffffffffffffffffffff021916908373ffffffffffffffffffffffffffffffffffffffff1602179055507f4062c1458b7ccfda2802d3eb8b1d186a7518faa48cf0de502c9ee7dc5c4dff858260405180806020018373ffffffffffffffffffffffffffffffffffffffff1673ffffffffffffffffffffffffffffffffffffffff168152602001828103825260038152602001807f426f6200000000000000000000000000000000000000000000000000000000008152506020019250505060405180910390a180600160007f4361726f6c00000000000000000000000000000000000000000000000000000060001916815260200190815260200160002060006101000a81548173ffffffffffffffffffffffffffffffffffffffff021916908373ffffffffffffffffffffffffffffffffffffffff1602179055507f4062c1458b7ccfda2802d3eb8b1d186a7518faa48cf0de502c9ee7dc5c4dff858160405180806020018373ffffffffffffffffffffffffffffffffffffffff1673ffffffffffffffffffffffffffffffffffffffff168152602001828103825260058152602001807f4361726f6c0000000000000000000000000000000000000000000000000000008152506020019250505060405180910390a150505061078b806103cf6000396000f30060806040526004361061004c576000357c0100000000000000000000000000000000000000000000000000000000900463ffffffff1680630e6775a41461004e5780638da5cb5b1461006e575b005b61006c600480360381019080803590602001909291905050506100c5565b005b34801561007a57600080fd5b5061008361073a565b604051808273ffffffffffffffffffffffffffffffffffffffff1673ffffffffffffffffffffffffffffffffffffffff16815260200191505060405180910390f35b600081600160007f416c69636500000000000000000000000000000000000000000000000000000060001916815260200190815260200160002060009054906101000a900473ffffffffffffffffffffffffffffffffffffffff1673ffffffffffffffffffffffffffffffffffffffff163373ffffffffffffffffffffffffffffffffffffffff161415156101e8576040517f08c379a00000000000000000000000000000000000000000000000000000000081526004018080602001828103825260228152602001807f4572726f723a206f6e6c7920416c6963652063616e2073706c697420616d6f7581526020017f6e7400000000000000000000000000000000000000000000000000000000000081525060400191505060405180910390fd5b6000341415156102ac576040517f08c379a000000000000000000000000000000000000000000000000000000000815260040180806020018281038252604c8152602001807f4572726f723a2066756e6374696f6e20646f6573206e6f7420737570706f727481526020017f206d73672e76616c75652c20796f75206e65656420746f20706173732069742081526020017f617320706172616d65746572000000000000000000000000000000000000000081525060600191505060405180910390fd5b60008111151561034a576040517f08c379a00000000000000000000000000000000000000000000000000000000081526004018080602001828103825260228152602001807f4572726f723a20796f75206e65656420746f2070726f7669646520612076616c81526020017f756500000000000000000000000000000000000000000000000000000000000081525060400191505060405180910390fd5b600060028281151561035857fe5b061415156103f4576040517f08c379a00000000000000000000000000000000000000000000000000000000081526004018080602001828103825260238152602001807f4572726f723a206f6e6c79206576656e206e756d62657273206163636570746181526020017f626c65000000000000000000000000000000000000000000000000000000000081525060400191505060405180910390fd5b60028381151561040057fe5b049150600160007f426f62000000000000000000000000000000000000000000000000000000000060001916815260200190815260200160002060009054906101000a900473ffffffffffffffffffffffffffffffffffffffff1673ffffffffffffffffffffffffffffffffffffffff166108fc839081150290604051600060405180830381858888f193505050501580156104a0573d6000803e3d6000fd5b507f90aef451f65639eb80bc0a2aa19ab80368f54de4e83cf7d3622912afc9b2825882600160007f426f62000000000000000000000000000000000000000000000000000000000060001916815260200190815260200160002060009054906101000a900473ffffffffffffffffffffffffffffffffffffffff1660405180838152602001806020018373ffffffffffffffffffffffffffffffffffffffff1673ffffffffffffffffffffffffffffffffffffffff168152602001828103825260038152602001807f426f620000000000000000000000000000000000000000000000000000000000815250602001935050505060405180910390a1600160007f4361726f6c00000000000000000000000000000000000000000000000000000060001916815260200190815260200160002060009054906101000a900473ffffffffffffffffffffffffffffffffffffffff1673ffffffffffffffffffffffffffffffffffffffff166108fc839081150290604051600060405180830381858888f19350505050158015610639573d6000803e3d6000fd5b507f90aef451f65639eb80bc0a2aa19ab80368f54de4e83cf7d3622912afc9b2825882600160007f4361726f6c00000000000000000000000000000000000000000000000000000060001916815260200190815260200160002060009054906101000a900473ffffffffffffffffffffffffffffffffffffffff1660405180838152602001806020018373ffffffffffffffffffffffffffffffffffffffff1673ffffffffffffffffffffffffffffffffffffffff168152602001828103825260058152602001807f4361726f6c000000000000000000000000000000000000000000000000000000815250602001935050505060405180910390a1505050565b6000809054906101000a900473ffffffffffffffffffffffffffffffffffffffff16815600a165627a7a72305820aa37d9c0a004034d0772be5dea9478a8673fd249f64de8aef0777f9d0553c9380029",
  "source": "pragma solidity 0.4.24;\r\n\r\ncontract Splitter {\r\n    address public owner;\r\n    mapping (bytes32 => address) accounts;\r\n\r\n    constructor(address Alice, address Bob, address Carol) public {\r\n        owner = msg.sender;\r\n        accounts[\"Alice\"] = Alice;\r\n        emit accountAdded(\"Alice\", Alice);\r\n        accounts[\"Bob\"] = Bob;\r\n        emit accountAdded(\"Bob\", Bob);\r\n        accounts[\"Carol\"] = Carol;\r\n        emit accountAdded(\"Carol\", Carol);\r\n    }\r\n\r\n    modifier onlyOwner {\r\n        require(msg.sender == owner, \"Only contract owner can set accounts\");\r\n        _;\r\n    }\r\n\r\n    event accountAdded(string accountName, address accountAddress);\r\n    event amountSent(uint amount, string accountName, address accountAddress);\r\n\r\n    modifier conditionsForSplit(uint amountToSplit) {\r\n        require(msg.sender == accounts[\"Alice\"], \"Error: only Alice can split amount\");\r\n        require(msg.value == 0, \"Error: function does not support msg.value, you need to pass it as parameter\");\r\n        require(amountToSplit > 0, \"Error: you need to provide a value\");\r\n        require(amountToSplit % 2 == 0, \"Error: only even numbers acceptable\");\r\n        _;\r\n    }\r\n        \r\n    function splitAmount(uint amountToSplit) public payable conditionsForSplit(amountToSplit) {\r\n        //in case Bob or Carol reject transfer, every state change should be reverted\r\n        uint amountToSend = amountToSplit/2;\r\n        accounts[\"Bob\"].transfer(amountToSend);\r\n        emit amountSent(amountToSend, \"Bob\", accounts[\"Bob\"]);\r\n        accounts[\"Carol\"].transfer(amountToSend);\r\n        emit amountSent(amountToSend, \"Carol\", accounts[\"Carol\"]);\r\n    }\r\n    \r\n    function() external payable {\r\n    }\r\n}\r\n",
  "sourcePath": "/mnt/c/splitter-project/Splitter/contracts/Splitter.sol",
  "compiler": {
    "name": "solc",
    "version": "0.4.24+commit.e67f0147.Emscripten.clang"
  },
  "schemaVersion": "2.0.1",
  "updatedAt": "2018-12-26T13:39:08.406Z"
}