{
  "contractName": "Splitter",
  "abi": [
    {
      "constant": true,
      "inputs": [],
      "name": "owner",
      "outputs": [
        {
          "name": "",
          "type": "address"
        }
      ],
      "payable": false,
      "stateMutability": "view",
      "type": "function"
    },
    {
      "inputs": [],
      "payable": false,
      "stateMutability": "nonpayable",
      "type": "constructor"
    },
    {
      "payable": true,
      "stateMutability": "payable",
      "type": "fallback"
    },
    {
      "anonymous": false,
      "inputs": [
        {
          "indexed": false,
          "name": "accountName",
          "type": "string"
        },
        {
          "indexed": false,
          "name": "accountAddress",
          "type": "address"
        }
      ],
      "name": "accountAdded",
      "type": "event"
    },
    {
      "anonymous": false,
      "inputs": [
        {
          "indexed": false,
          "name": "amount",
          "type": "uint256"
        },
        {
          "indexed": false,
          "name": "accountName",
          "type": "string"
        },
        {
          "indexed": false,
          "name": "accountAddress",
          "type": "address"
        }
      ],
      "name": "amountSent",
      "type": "event"
    },
    {
      "constant": true,
      "inputs": [],
      "name": "checkIfAccountsInitialized",
      "outputs": [
        {
          "name": "",
          "type": "bool"
        }
      ],
      "payable": false,
      "stateMutability": "view",
      "type": "function"
    },
    {
      "constant": false,
      "inputs": [
        {
          "name": "Alice",
          "type": "address"
        },
        {
          "name": "Bob",
          "type": "address"
        },
        {
          "name": "Carol",
          "type": "address"
        }
      ],
      "name": "initializeAccounts",
      "outputs": [
        {
          "name": "",
          "type": "bool"
        }
      ],
      "payable": false,
      "stateMutability": "nonpayable",
      "type": "function"
    },
    {
      "constant": false,
      "inputs": [
        {
          "name": "amountToSplit",
          "type": "uint256"
        }
      ],
      "name": "splitAmount",
      "outputs": [],
      "payable": true,
      "stateMutability": "payable",
      "type": "function"
    }
  ],
  "bytecode": "0x60806040526000600260006101000a81548160ff02191690831515021790555034801561002b57600080fd5b50336000806101000a81548173ffffffffffffffffffffffffffffffffffffffff021916908373ffffffffffffffffffffffffffffffffffffffff160217905550610e658061007b6000396000f300608060405260043610610062576000357c0100000000000000000000000000000000000000000000000000000000900463ffffffff1680630e6775a41461006457806321cea66b146100845780638da5cb5b1461011f578063eff3794914610176575b005b610082600480360381019080803590602001909291905050506101a5565b005b34801561009057600080fd5b50610105600480360381019080803573ffffffffffffffffffffffffffffffffffffffff169060200190929190803573ffffffffffffffffffffffffffffffffffffffff169060200190929190803573ffffffffffffffffffffffffffffffffffffffff1690602001909291905050506108e7565b604051808215151515815260200191505060405180910390f35b34801561012b57600080fd5b50610134610dfd565b604051808273ffffffffffffffffffffffffffffffffffffffff1673ffffffffffffffffffffffffffffffffffffffff16815260200191505060405180910390f35b34801561018257600080fd5b5061018b610e22565b604051808215151515815260200191505060405180910390f35b600081600260009054906101000a900460ff161515610252576040517f08c379a000000000000000000000000000000000000000000000000000000000815260040180806020018281038252602c8152602001807f4572726f723a206163636f756e7473206e65656420746f20626520696e69746981526020017f616c697a6564206669727374000000000000000000000000000000000000000081525060400191505060405180910390fd5b600160405180807f416c6963650000000000000000000000000000000000000000000000000000008152506005019050908152602001604051809103902060009054906101000a900473ffffffffffffffffffffffffffffffffffffffff1673ffffffffffffffffffffffffffffffffffffffff163373ffffffffffffffffffffffffffffffffffffffff16141515610379576040517f08c379a00000000000000000000000000000000000000000000000000000000081526004018080602001828103825260228152602001807f4572726f723a206f6e6c7920416c6963652063616e2073706c697420616d6f7581526020017f6e7400000000000000000000000000000000000000000000000000000000000081525060400191505060405180910390fd5b60003414151561043d576040517f08c379a000000000000000000000000000000000000000000000000000000000815260040180806020018281038252604c8152602001807f4572726f723a2066756e6374696f6e20646f6573206e6f7420737570706f727481526020017f206d73672e76616c75652c20796f75206e65656420746f20706173732069742081526020017f617320706172616d65746572000000000000000000000000000000000000000081525060600191505060405180910390fd5b6000811115156104db576040517f08c379a00000000000000000000000000000000000000000000000000000000081526004018080602001828103825260228152602001807f4572726f723a20796f75206e65656420746f2070726f7669646520612076616c81526020017f756500000000000000000000000000000000000000000000000000000000000081525060400191505060405180910390fd5b60006002828115156104e957fe5b06141515610585576040517f08c379a00000000000000000000000000000000000000000000000000000000081526004018080602001828103825260238152602001807f4572726f723a206f6e6c79206576656e206e756d62657273206163636570746181526020017f626c65000000000000000000000000000000000000000000000000000000000081525060400191505060405180910390fd5b60028381151561059157fe5b049150600160405180807f426f6200000000000000000000000000000000000000000000000000000000008152506003019050908152602001604051809103902060009054906101000a900473ffffffffffffffffffffffffffffffffffffffff1673ffffffffffffffffffffffffffffffffffffffff166108fc839081150290604051600060405180830381858888f19350505050158015610638573d6000803e3d6000fd5b507f90aef451f65639eb80bc0a2aa19ab80368f54de4e83cf7d3622912afc9b2825882600160405180807f426f6200000000000000000000000000000000000000000000000000000000008152506003019050908152602001604051809103902060009054906101000a900473ffffffffffffffffffffffffffffffffffffffff1660405180838152602001806020018373ffffffffffffffffffffffffffffffffffffffff1673ffffffffffffffffffffffffffffffffffffffff168152602001828103825260038152602001807f426f620000000000000000000000000000000000000000000000000000000000815250602001935050505060405180910390a1600160405180807f4361726f6c0000000000000000000000000000000000000000000000000000008152506005019050908152602001604051809103902060009054906101000a900473ffffffffffffffffffffffffffffffffffffffff1673ffffffffffffffffffffffffffffffffffffffff166108fc839081150290604051600060405180830381858888f193505050501580156107df573d6000803e3d6000fd5b507f90aef451f65639eb80bc0a2aa19ab80368f54de4e83cf7d3622912afc9b2825882600160405180807f4361726f6c0000000000000000000000000000000000000000000000000000008152506005019050908152602001604051809103902060009054906101000a900473ffffffffffffffffffffffffffffffffffffffff1660405180838152602001806020018373ffffffffffffffffffffffffffffffffffffffff1673ffffffffffffffffffffffffffffffffffffffff168152602001828103825260058152602001807f4361726f6c000000000000000000000000000000000000000000000000000000815250602001935050505060405180910390a1505050565b60008060009054906101000a900473ffffffffffffffffffffffffffffffffffffffff1673ffffffffffffffffffffffffffffffffffffffff163373ffffffffffffffffffffffffffffffffffffffff161415156109d3576040517f08c379a00000000000000000000000000000000000000000000000000000000081526004018080602001828103825260248152602001807f4f6e6c7920636f6e7472616374206f776e65722063616e20736574206163636f81526020017f756e74730000000000000000000000000000000000000000000000000000000081525060400191505060405180910390fd5b600260009054906101000a900460ff16151515610a7e576040517f08c379a00000000000000000000000000000000000000000000000000000000081526004018080602001828103825260238152602001807f4572726f723a206163636f756e747320616c726561647920696e697469616c6981526020017f7a6564000000000000000000000000000000000000000000000000000000000081525060400191505060405180910390fd5b83600160405180807f416c6963650000000000000000000000000000000000000000000000000000008152506005019050908152602001604051809103902060006101000a81548173ffffffffffffffffffffffffffffffffffffffff021916908373ffffffffffffffffffffffffffffffffffffffff1602179055507f4062c1458b7ccfda2802d3eb8b1d186a7518faa48cf0de502c9ee7dc5c4dff858460405180806020018373ffffffffffffffffffffffffffffffffffffffff1673ffffffffffffffffffffffffffffffffffffffff168152602001828103825260058152602001807f416c6963650000000000000000000000000000000000000000000000000000008152506020019250505060405180910390a182600160405180807f426f6200000000000000000000000000000000000000000000000000000000008152506003019050908152602001604051809103902060006101000a81548173ffffffffffffffffffffffffffffffffffffffff021916908373ffffffffffffffffffffffffffffffffffffffff1602179055507f4062c1458b7ccfda2802d3eb8b1d186a7518faa48cf0de502c9ee7dc5c4dff858360405180806020018373ffffffffffffffffffffffffffffffffffffffff1673ffffffffffffffffffffffffffffffffffffffff168152602001828103825260038152602001807f426f6200000000000000000000000000000000000000000000000000000000008152506020019250505060405180910390a181600160405180807f4361726f6c0000000000000000000000000000000000000000000000000000008152506005019050908152602001604051809103902060006101000a81548173ffffffffffffffffffffffffffffffffffffffff021916908373ffffffffffffffffffffffffffffffffffffffff1602179055507f4062c1458b7ccfda2802d3eb8b1d186a7518faa48cf0de502c9ee7dc5c4dff858260405180806020018373ffffffffffffffffffffffffffffffffffffffff1673ffffffffffffffffffffffffffffffffffffffff168152602001828103825260058152602001807f4361726f6c0000000000000000000000000000000000000000000000000000008152506020019250505060405180910390a16001600260006101000a81548160ff021916908315150217905550600260009054906101000a900460ff1690509392505050565b6000809054906101000a900473ffffffffffffffffffffffffffffffffffffffff1681565b6000600260009054906101000a900460ff169050905600a165627a7a7230582035b9de56183103a4fe6c6569cca3e699f8df12ee33b5dd92ca996191721f7cbe0029",
  "source": "pragma solidity 0.4.24;\r\n\r\ncontract Splitter {\r\n    address public owner;\r\n    mapping (string => address) accounts;\r\n    bool accountsInitialized = false;\r\n\r\n    constructor() public {\r\n        owner = msg.sender;\r\n    }\r\n\r\n    modifier onlyOwner {\r\n        require(msg.sender == owner, \"Only contract owner can set accounts\");\r\n        _;\r\n    }\r\n\r\n    event accountAdded(string accountName, address accountAddress);\r\n    event amountSent(uint amount, string accountName, address accountAddress);\r\n\r\n    modifier conditionsForSplit(uint amountToSplit) {\r\n        require(accountsInitialized, \"Error: accounts need to be initialized first\");\r\n        require(msg.sender == accounts[\"Alice\"], \"Error: only Alice can split amount\");\r\n        require(msg.value == 0, \"Error: function does not support msg.value, you need to pass it as parameter\");\r\n        require(amountToSplit > 0, \"Error: you need to provide a value\");\r\n        require(amountToSplit % 2 == 0, \"Error: only even numbers acceptable\");\r\n        _;\r\n    }\r\n\r\n    function checkIfAccountsInitialized() public view returns(bool) {\r\n        return accountsInitialized;\r\n    }\r\n\r\n    function initializeAccounts(address Alice, address Bob, address Carol) public onlyOwner returns(bool) {\r\n        require(!accountsInitialized, \"Error: accounts already initialized\");\r\n        accounts[\"Alice\"] = Alice;\r\n        emit accountAdded(\"Alice\", Alice);\r\n        accounts[\"Bob\"] = Bob;\r\n        emit accountAdded(\"Bob\", Bob);\r\n        accounts[\"Carol\"] = Carol;\r\n        emit accountAdded(\"Carol\", Carol);\r\n        accountsInitialized = true; //probably not the best idea, haven't checked if all accounts have actually been set\r\n        return accountsInitialized;\r\n    }\r\n        \r\n    function splitAmount(uint amountToSplit) public payable conditionsForSplit(amountToSplit) {\r\n        //in case Bob or Carol reject transfer, every state change should be reverted\r\n        uint amountToSend = amountToSplit/2;\r\n        accounts[\"Bob\"].transfer(amountToSend);\r\n        emit amountSent(amountToSend, \"Bob\", accounts[\"Bob\"]);\r\n        accounts[\"Carol\"].transfer(amountToSend);\r\n        emit amountSent(amountToSend, \"Carol\", accounts[\"Carol\"]);\r\n    }\r\n    \r\n    function() external payable {\r\n    }\r\n}\r\n",
  "sourcePath": "/mnt/c/Splitter/contracts/Splitter.sol",
  "compiler": {
    "name": "solc",
    "version": "0.4.24+commit.e67f0147.Emscripten.clang"
  },
  "schemaVersion": "2.0.1",
  "updatedAt": "2018-12-25T22:31:13.525Z"
}